:1020000000080010C92000000000000000000000CF
:10201000C5200000C5200000C52000000000000011
:10202000000000000000000000000000C5200000CB
:10203000C520000000000000C5200000C5200000F1
:10204000C5200000C5200000C5200000C5200000FC
:10205000C5200000C5200000C5200000C5200000EC
:10206000C5200000C5200000C5200000C5200000DC
:10207000C5200000C5200000C5200000C5200000CC
:10208000C5200000C5200000C5200000C5200000BC
:10209000C5200000C5200000C5200000C5200000AC
:1020A000C5200000C5200000C5200000C52000009C
:1020B000C5200000C5200000C5200000C52000008C
:1020C000C5200000FEE70000684620F007018D46AD
:1020D00001B500F08BF8154A154B9A4206D1154A06
:1020E000154B9A420BD0043A14490CE01449043AB7
:1020F0008B42F4D252F8040F43F8040BF8E7114B6B
:10210000114A002106E08B42F9D252F8040F43F83D
:10211000040BF8E7934202D243F8041BFAE700F0FD
:102120004DF8BDE801408546704700BFC822000059
:1021300000000010C8220000000000100000001085
:1021400000000010000000100000001082B000230A
:10215000009301930093009A82420BD20193019A5B
:102160000E2A03D8019A01320192F8E7009A01324F
:102170000092F0E702B0704707B5014600230193D3
:10218000019B8B4206D24FF47A70FFF7DFFF019B71
:102190000133F4E703B05DF804FB13B504460023F4
:1021A0000193019BA34206D24FF47A70FFF7E4FF3C
:1021B000019B0133F4E702B010BD000008B500F048
:1021C00015F8084C084B00224FF0FF351A612560C6
:1021D000A5610120FFF7E1FFE5610120FFF7DDFFC9
:1021E000F6E700BF40C0092000C00240334B202268
:1021F000C3F8A0211A46D2F8A011304B4906FAD5EF
:102200000322C3F804212E4A0120C3F80C01AA219D
:10221000C3F884205522C3F88C10C3F88C20C3F86F
:102220008000C3F88C10C3F88C20D3F8882012F0FB
:10223000806F224AF9D00323C2F88030AA23C2F863
:102240008C305523C2F88C30D2F888101B4B11F01B
:10225000407FF9D02322C3F8A420AA2155220120CF
:10226000C3F8AC10C3F8AC20C3F8A000C3F8AC109E
:10227000C3F8AC20D3F8A82012F4806F0F4AF9D02D
:102280000323C2F8A030AA23C2F8AC305523C2F809
:10229000AC30D2F8A810094B11F4407FF9D00949AD
:1022A0000022C3F8A821C3F8AC21C3F8C410C3F8B6
:1022B000C82143F23A021A60704700BF00C00F40C5
:0822C00063000500DE8728041D
:0400000300002000D9
:00000001FF
